{
  "contractName": "FakeProfileReport",
  "abi": [
    {
      "inputs": [],
      "name": "reportCount",
      "outputs": [
        {
          "internalType": "uint256",
          "name": "",
          "type": "uint256"
        }
      ],
      "stateMutability": "view",
      "type": "function",
      "constant": true
    },
    {
      "inputs": [
        {
          "internalType": "uint256",
          "name": "",
          "type": "uint256"
        }
      ],
      "name": "reports",
      "outputs": [
        {
          "internalType": "string",
          "name": "profileLink",
          "type": "string"
        },
        {
          "internalType": "string",
          "name": "reason",
          "type": "string"
        },
        {
          "internalType": "string",
          "name": "description",
          "type": "string"
        },
        {
          "internalType": "string",
          "name": "username",
          "type": "string"
        },
        {
          "internalType": "string",
          "name": "email",
          "type": "string"
        },
        {
          "internalType": "bool",
          "name": "resolved",
          "type": "bool"
        }
      ],
      "stateMutability": "view",
      "type": "function",
      "constant": true
    },
    {
      "inputs": [
        {
          "internalType": "string",
          "name": "_profileLink",
          "type": "string"
        },
        {
          "internalType": "string",
          "name": "_reason",
          "type": "string"
        },
        {
          "internalType": "string",
          "name": "_description",
          "type": "string"
        },
        {
          "internalType": "string",
          "name": "_username",
          "type": "string"
        },
        {
          "internalType": "string",
          "name": "_email",
          "type": "string"
        }
      ],
      "name": "submitReport",
      "outputs": [],
      "stateMutability": "nonpayable",
      "type": "function"
    },
    {
      "inputs": [
        {
          "internalType": "uint256",
          "name": "_reportId",
          "type": "uint256"
        }
      ],
      "name": "checkReport",
      "outputs": [
        {
          "internalType": "string",
          "name": "profileLink",
          "type": "string"
        },
        {
          "internalType": "string",
          "name": "reason",
          "type": "string"
        },
        {
          "internalType": "string",
          "name": "description",
          "type": "string"
        },
        {
          "internalType": "string",
          "name": "username",
          "type": "string"
        },
        {
          "internalType": "string",
          "name": "email",
          "type": "string"
        },
        {
          "internalType": "bool",
          "name": "resolved",
          "type": "bool"
        }
      ],
      "stateMutability": "view",
      "type": "function",
      "constant": true
    }
  ],
  "bytecode": "0x6080604052600060015534801561001557600080fd5b50610dbf806100256000396000f3fe608060405234801561001057600080fd5b506004361061004c5760003560e01c8063185c6f8414610051578063641551e61461006f578063c942adf7146100a4578063d97cda76146100d9575b600080fd5b6100596100f5565b6040516100669190610b69565b60405180910390f35b61008960048036038101906100849190610a65565b6100fb565b60405161009b96959493929190610ae5565b60405180910390f35b6100be60048036038101906100b99190610a65565b61044e565b6040516100d096959493929190610ae5565b60405180910390f35b6100f360048036038101906100ee9190610976565b61073f565b005b60015481565b60608060608060606000806000808981526020019081526020016000206040518060c001604052908160008201805461013390610c59565b80601f016020809104026020016040519081016040528092919081815260200182805461015f90610c59565b80156101ac5780601f10610181576101008083540402835291602001916101ac565b820191906000526020600020905b81548152906001019060200180831161018f57829003601f168201915b505050505081526020016001820180546101c590610c59565b80601f01602080910402602001604051908101604052809291908181526020018280546101f190610c59565b801561023e5780601f106102135761010080835404028352916020019161023e565b820191906000526020600020905b81548152906001019060200180831161022157829003601f168201915b5050505050815260200160028201805461025790610c59565b80601f016020809104026020016040519081016040528092919081815260200182805461028390610c59565b80156102d05780601f106102a5576101008083540402835291602001916102d0565b820191906000526020600020905b8154815290600101906020018083116102b357829003601f168201915b505050505081526020016003820180546102e990610c59565b80601f016020809104026020016040519081016040528092919081815260200182805461031590610c59565b80156103625780601f1061033757610100808354040283529160200191610362565b820191906000526020600020905b81548152906001019060200180831161034557829003601f168201915b5050505050815260200160048201805461037b90610c59565b80601f01602080910402602001604051908101604052809291908181526020018280546103a790610c59565b80156103f45780601f106103c9576101008083540402835291602001916103f4565b820191906000526020600020905b8154815290600101906020018083116103d757829003601f168201915b505050505081526020016005820160009054906101000a900460ff1615151515815250509050806000015181602001518260400151836060015184608001518560a001519650965096509650965096505091939550919395565b600060205280600052604060002060009150905080600001805461047190610c59565b80601f016020809104026020016040519081016040528092919081815260200182805461049d90610c59565b80156104ea5780601f106104bf576101008083540402835291602001916104ea565b820191906000526020600020905b8154815290600101906020018083116104cd57829003601f168201915b5050505050908060010180546104ff90610c59565b80601f016020809104026020016040519081016040528092919081815260200182805461052b90610c59565b80156105785780601f1061054d57610100808354040283529160200191610578565b820191906000526020600020905b81548152906001019060200180831161055b57829003601f168201915b50505050509080600201805461058d90610c59565b80601f01602080910402602001604051908101604052809291908181526020018280546105b990610c59565b80156106065780601f106105db57610100808354040283529160200191610606565b820191906000526020600020905b8154815290600101906020018083116105e957829003601f168201915b50505050509080600301805461061b90610c59565b80601f016020809104026020016040519081016040528092919081815260200182805461064790610c59565b80156106945780601f1061066957610100808354040283529160200191610694565b820191906000526020600020905b81548152906001019060200180831161067757829003601f168201915b5050505050908060040180546106a990610c59565b80601f01602080910402602001604051908101604052809291908181526020018280546106d590610c59565b80156107225780601f106106f757610100808354040283529160200191610722565b820191906000526020600020905b81548152906001019060200180831161070557829003601f168201915b5050505050908060050160009054906101000a900460ff16905086565b6040518060c00160405280868152602001858152602001848152602001838152602001828152602001600015158152506000806001548152602001908152602001600020600082015181600001908051906020019061079f929190610856565b5060208201518160010190805190602001906107bc929190610856565b5060408201518160020190805190602001906107d9929190610856565b5060608201518160030190805190602001906107f6929190610856565b506080820151816004019080519060200190610813929190610856565b5060a08201518160050160006101000a81548160ff0219169083151502179055509050506001600081548092919061084a90610c8b565b91905055505050505050565b82805461086290610c59565b90600052602060002090601f01602090048101928261088457600085556108cb565b82601f1061089d57805160ff19168380011785556108cb565b828001600101855582156108cb579182015b828111156108ca5782518255916020019190600101906108af565b5b5090506108d891906108dc565b5090565b5b808211156108f55760008160009055506001016108dd565b5090565b600061090c61090784610bb5565b610b84565b90508281526020810184848401111561092457600080fd5b61092f848285610c17565b509392505050565b600082601f83011261094857600080fd5b81356109588482602086016108f9565b91505092915050565b60008135905061097081610d72565b92915050565b600080600080600060a0868803121561098e57600080fd5b600086013567ffffffffffffffff8111156109a857600080fd5b6109b488828901610937565b955050602086013567ffffffffffffffff8111156109d157600080fd5b6109dd88828901610937565b945050604086013567ffffffffffffffff8111156109fa57600080fd5b610a0688828901610937565b935050606086013567ffffffffffffffff811115610a2357600080fd5b610a2f88828901610937565b925050608086013567ffffffffffffffff811115610a4c57600080fd5b610a5888828901610937565b9150509295509295909350565b600060208284031215610a7757600080fd5b6000610a8584828501610961565b91505092915050565b610a9781610c01565b82525050565b6000610aa882610be5565b610ab28185610bf0565b9350610ac2818560208601610c26565b610acb81610d61565b840191505092915050565b610adf81610c0d565b82525050565b600060c0820190508181036000830152610aff8189610a9d565b90508181036020830152610b138188610a9d565b90508181036040830152610b278187610a9d565b90508181036060830152610b3b8186610a9d565b90508181036080830152610b4f8185610a9d565b9050610b5e60a0830184610a8e565b979650505050505050565b6000602082019050610b7e6000830184610ad6565b92915050565b6000604051905081810181811067ffffffffffffffff82111715610bab57610baa610d32565b5b8060405250919050565b600067ffffffffffffffff821115610bd057610bcf610d32565b5b601f19601f8301169050602081019050919050565b600081519050919050565b600082825260208201905092915050565b60008115159050919050565b6000819050919050565b82818337600083830152505050565b60005b83811015610c44578082015181840152602081019050610c29565b83811115610c53576000848401525b50505050565b60006002820490506001821680610c7157607f821691505b60208210811415610c8557610c84610d03565b5b50919050565b6000610c9682610c0d565b91507fffffffffffffffffffffffffffffffffffffffffffffffffffffffffffffffff821415610cc957610cc8610cd4565b5b600182019050919050565b7f4e487b7100000000000000000000000000000000000000000000000000000000600052601160045260246000fd5b7f4e487b7100000000000000000000000000000000000000000000000000000000600052602260045260246000fd5b7f4e487b7100000000000000000000000000000000000000000000000000000000600052604160045260246000fd5b6000601f19601f8301169050919050565b610d7b81610c0d565b8114610d8657600080fd5b5056fea26469706673582212201aaa79ad62bf13d635a3af85979881cf8bb3e2738aaa6420fb21dd20b08cb24364736f6c63430008000033",
  "immutableReferences": {},
  "source": "// SPDX-License-Identifier: MIT\r\npragma solidity ^0.8.0;\r\n\r\ncontract FakeProfileReport {\r\n    struct Report {\r\n        string profileLink;\r\n        string reason;\r\n        string description;\r\n        string username;\r\n        string email;\r\n        bool resolved;\r\n    }\r\n\r\n    mapping(uint => Report) public reports;\r\n    uint public reportCount = 0;\r\n\r\n    function submitReport(string memory _profileLink, string memory _reason, string memory _description, string memory _username, string memory _email) public {\r\n        reports[reportCount] = Report(_profileLink, _reason, _description, _username, _email, false);\r\n        reportCount++;\r\n    }\r\n\r\n    function checkReport(uint _reportId) public view returns (string memory profileLink, string memory reason, string memory description, string memory username, string memory email, bool resolved) {\r\n        Report memory report = reports[_reportId];\r\n        return (report.profileLink, report.reason, report.description, report.username, report.email, report.resolved);\r\n    }\r\n}\r\n",
  "sourcePath": "C:\\IMPORTANT\\6th sem\\7 th sem  - networking\\Final year project\\BLOCKCHAIN\\contracts\\FakeProfileReport.sol",
  "compiler": {
    "name": "solc",
    "version": "0.8.0+commit.c7dfd78e.Emscripten.clang"
  },
  "schemaVersion": "3.4.16",
  "updatedAt": "2024-10-11T08:45:20.435Z",
  "networkType": "ethereum",
  "devdoc": {
    "kind": "dev",
    "methods": {},
    "version": 1
  },
  "userdoc": {
    "kind": "user",
    "methods": {},
    "version": 1
  }
}